S01800006E63705468726F7567687075744D4731332E73333769
S21400000000080020F90D0000F50D0000F50D0000B9
S214000010F50D0000F50D0000F50D0000F50D0000D3
S214000020F50D0000F50D0000F50D0000F50D0000C3
S214000030F50D0000F50D0000F50D0000F50D0000B3
S214000040F50D000069F70100F50D0000F50D000044
S21400005029F20100D5F7010075F701008DF70100C0
S2140000606DF701007113000031140000F50D00005B
S214000070B50A0000410B0000F50D0000F50D00006C
S214000080F50D0000F50D000075140000F50D0000DC
S214000090F50D0000F50D0000F50D0000F50D000053
S2140000A0F50D0000F50D0000F50D0000F50D000043
S2140000B0D9F7010071F70100E9D90100F50D00003C
S2140000C019F80100F50D0000F9AD0100F50D00006E
S2140000D0F50D0000F50D0000F50D0000F50D000013
S2140000E0F50D0000F50D0000F50D0000F50D000003
S2140000F0F50D0000F50D0000F50D000013B779FAB8
S214000100C925DDB7ADF3CFE0F1B614B800010000A5
S21400011000000000000000002000000001000000B9
S21400012000000000000000000000000000000000CA
S214000130000000008C0100001E0000000D00000002
S214000140A0040000070000003004000007000000C4
S2140001507C0100007801000000000000680100003B
S21400016001000000FFFFFFFFF22018C7322DC7ABCB
S214000170CF46F7FF709EB9BB0000000003000700E3
S2140001801300160019001C001E00000000000108E5
S214000190FFFF0000F402000002000108FFFF00005D
S2140001A0F80200000B000008FFFF0001000300003B
S2140001B00C000708FFFF0003020000000000010813
S2140001C0FFFF00000803000002000108FFFF000018
S2140001D00C03000004000308FFFF000114030000E6
S2140001E002000108FFFF00001C03000005000108D4
S2140001F0FFFF00002403000000000108FFFF0000CE
S2140002002803000002000108FFFF00002C03000086
S21400021007000108FFFF0000340300000200010889
S214000220FFFF00004403000008000108FFFF000075
S2140002304C03000002000108FFFF00005803000006
S21400024009000108FFFF000060030000000001082D
S214000250FFFF00006803000002000108FFFF000027
S2140002607C03000001800208FFFF000794030000E3
S21400027000000108FFFF00009C03000002000108C8
S214000280FFFF0000B003000003800008FFFF00012E
S214000290C80300000C000708FFFF0003010301006D
S2140002A002000108FFFF0000D003000004800008E1
S2140002B0FFFF0001E80300000C000708FFFF000333
S2140002C00204020002000108FFFF0000F003000025
S2140002D005800408FFFF0001080400000200010872
S2140002E0FFFF00001004000006800508FFFF000165
S2140002F028040000020001180500200300052A005B
S214000300200004001C1700200200001805000A0741
S21400031000002A000A011100040800200500020956
S21400032000012A000200000002000A180500020C64
S21400033000292A000C0053696C69636F6E204C61BB
S214000340627300000500020E00242A000A00426CB8
S2140003507565204765636B6F0500021000232A0051
S21400036006000001020304051000F01921B4478FAF
S214000370A4BFA14F63FDEED6141D000013000813A2
S21400038000636032E0375EA488534E6DFB6435BF71
S214000390F700000008020000000000001000F22035
S2140003A018C7322DC7ABCF46F7FF709EB9BB00000B
S2140003B01300101600BEA4A939C5F5E09BA14DE3B5
S2140003C0DED63DB7470000001003FF001C140020D7
S2140003D013002019009FD40A705920D283514A4333
S2140003E0A631B609610000002004FF001C1500209D
S2140003F01300041C000825AF28C3A9D184654EBB92
S2140004006A5B0D546B0000000405FF001C160020FC
S2140004101300061E001877C62BFE5F819106418AE0
S214000420CDE16B6BBE000000060601000008002050
S214000430F01921B4478FA4BFA14F63FDEED6141D5B
S214000440636032E0375EA488534E6DFB6435BFF7B9
S214000450F22018C7322DC7ABCF46F7FF709EB9BB48
S214000460BEA4A939C5F5E09BA14DE3DED63DB7474E
S2140004709FD40A705920D283514A43A631B60961E7
S2140004800825AF28C3A9D184654EBB6A5B0D546BA3
S2140004901877C62BFE5F819106418ACDE16B6BBE55
S2140004A00028012803280018002A012A0A18292AE9
S2140004B0242A232A0118052A0229000010B5054C13
S2140004C0237833B9044B13B10448AFF300800123FB
S2140004D0237010BD0014002000000000F06F020022
S2140004E008B5034B1BB103490348AFF3008008BDB2
S2140004F00000000004140020F06F0200154B002BD3
S21400050008BF134B9D46A3F5803A00218B460F4645
S2140005101348144A121A24F01CF80F4B002B00D074
S21400052098470E4B002B00D098470020002104006F
S2140005300D000D48002802D00C48AFF3008023F0D1
S214000540A1FF2000290000F0D9F823F087FF00BFA4
S2140005500000080000080020000000000000000066
S21400056000140020444D00200000000000000000A1
S21400057010B500F09FFB012304220521002003F0A4
S2140005807BFC002304220F210320BDE8104003F06B
S21400059073BC00BF08B501210B4802F067FA0121C1
S2140005A00A4802F063FA0121094802F05FFA0121C5
S2140005B0084802F05BFA00F09BFB00F0EBFB0648F5
S2140005C0BDE8084003F010BF00A2040000450A0082
S2140005D00032040000350A0000040140F0B53D4E2C
S2140005E03D4D96E80F0001246C642F688DB003AC77
S2140005F047F480772F6084E80F0006F11005204648
S21400060003F04EFB0FCD07AC0FC4344B2A685B6873
S21400061022801B035BBF324B1B884FF4AD73C3F3C2
S214000620080307A8ADF8223002F0EAFB2D4800F0D8
S2140006303DFC01221146022002F070FC042111202C
S21400064002F0F4FC00221146032002F067FC0121B0
S214000650254802F00BFA0CAD736A0293202305F8C6
S214000660283D284602F00EFC4FF4004000F058FCEF
S21400067002211E4802F0DAFC02211D4802F0D6FCD8
S21400068002211C4802F0D2FC1B4B93E8070007AB84
S21400069003C30024012107A81A708DF81C108DF8DA
S2140006A01D408DF81E408DF81F408DF820408DF8B7
S2140006B0224003F043FD0CA800F82C4D03F060F92F
S2140006C0022328468DF808408DF8093003F062F9B9
S2140006D00DB0F0BD2047020000000E40B081E00FD4
S2140006E0B881E00F00F0490200250A0002001C0055
S2140006F003001E00050022004847020010B5FFF761
S2140007006DFFFFF747FFFFF733FF1F4804F0B8FF02
S21400071008F002FD08F06CFD08F022FD08F050FD20
S21400072008F02AFD08F034FD08F002FD08F03CFD54
S21400073008F00AFD08F068FD08F04EFD00F014FA17
S21400074000F030F902E000F067F970B905F0CFF874
S214000750044650B100F07EFA0028F4D1204600F09E
S214000760BDF800F059F90028F0D000F0E1F800F0EC
S21400077053F90028E4D102F01FFE05F0D5F805F085
S214000780A7F802F01BFEDBE7544702002DE9F04114
S21400079004460E461546B0F80A801BB9A8F10C08A8
S2140007A01FFA88F802F014FE23899845074661D997
S2140007B01E2D38D92389A8EB0308C8EB0818B5EB1B
S2140007C0480F57D820881E2D00EBC000A84604EB23
S2140007D0800028BF4FF01E0831464246103023F0F6
S2140007E094FE238822886089511C03EBC30304EB24
S2140007F0830391FBF0F200FB121292B2C3F80C8056
S2140008002280E38801339BB2E380238901339BB2C5
S214000810B5EB080546442381D4D1384602F0DCFD0A
S2140008200120BDE8F081208800EBC00004EB8000CA
S21400083031462A46103023F068FE238822886089D5
S214000840511C03EBC30391FBF0F204EB830300FBA4
S214000850121292B2DD602280E38801339BB2E380FD
S214000860238901339BB23846238102F0B5FD01206F
S214000870BDE8F08102F0B0FD0020BDE8F08100BFC9
S21400088030B40B4B0B4C0C4D186004220023012097
S214000890287119462A8004F10C006B804FF4BD6263
S2140008A023806380A380E380238130BC23F051BE85
S2140008B020170020880900201808002038B5064CAC
S2140008C00D460A460146601D23F01FFEADB200230A
S2140008D065802371238038BD18080020014658B172
S2140008E0036806481A0202F4E062C3F307231A43B9
S2140008F004320023FFF74ABF704700BF8809002074
S21400090010B502F065FD094A91885389013191FBC3
S214000910F3F404FB13139BB293801389013B9BB241
S2140009201381BDE8104002F057BD00BF88090020C3
S21400093070B51A4DEB889BB2002B2ED0184E22E0D5
S2140009406C88A4B204EBC404A40002F045FD2B1985
S2140009501034D9683368C9B228199847E8B902F044
S21400096037FD6A886B89013292FBF3F101FB132392
S2140009709BB26B80EB88013B9BB2EB8002F02CFDB8
S214000980EB889BB24BB102F023FDEC88A4B2002C9E
S214000990D6D102F021FD2368FFDE70BD8809002055
S2140009A02017002010B5184C23791BBB23889BB258
S2140009B003BBD4F80500154A20F47F4323F0070351
S2140009C093421BD004F1090108F0D8FC104B1148E3
S2140009D019680B681A0202F4E062C3F307231A438D
S2140009E004320123FFF7D2FE0121042200232171E5
S2140009F022806380BDE81040FFF79ABF04F109002B
S214000A0000F070F9E2E700BF180800202000FF00A1
S214000A10A01A002088090020054B1A792AB91888E0
S214000A2080B2B0FA80F0400970470020704700BFDF
S214000A3018080020704700BF10B4044C044B0A4648
S214000A40014620685DF8044B01F068BF7C0F00206B
S214000A50550A000019461046FFF752BF38B5104C2D
S214000A60022004F085FF20680368DA6E22F4E02294
S214000A70DA66DA6E4FF4004542F48022DA66022126
S214000A809D6401F095F8074B206807494FF4B4724F
S214000A9001F00CFF054A064B12681A6038BD00BF0D
S214000AA07C0F0020350A000028170020941800202C
S214000AB0901800201E4B186803681A6C120435D56F
S214000AC030B54FF400421B4C9A64236885B033B9A6
S214000AD0042004F04DFFFFF7C1FF05B030BD2568C8
S214000AE004AB002143F8041D01910291013D02AAC6
S214000AF001A9256001F000F901980028EDD00299BF
S214000B000329EAD90C4B0D4C1A68130203F4E06370
S214000B10C2F3072213430433236023689942DCD3CD
S214000B202168FFF7CBFEFFF799FFD6E7704700BFB7
S214000B307C0F002090180020281700202417002083
S214000B4010B5084C23681B681B6C9B0400D410BDB2
S214000B50022004F00DFF23681B684FF400529A64CD
S214000B6010BD00BF7C0F0020F0B58BB02B4B01935F
S214000B7000232B4EADF80C30ADF810308DF8123047
S214000B808DF813308DF815308DF8173003238DF857
S214000B9014308DF818302349234A07914FF4E13476
S214000BA0022301A902948DF816304FF4805441F6C2
S214000BB01E6330680892ADF80E40ADF8243001F0A0
S214000BC0AFF9029B194D1A481A4F9B092B60FFF785
S214000BD057FE19490C2002F04FFC18490D2002F070
S214000BE04BFC174B3068C3F880414FF40052C3F8F3
S214000BF080211C601A6002681249D7669164D46C22
S214000C00114B124944F42044D4644FF4B47201F0FA
S214000C104DFE0F4B2A681A600BB0F0BD0000014075
S214000C207C0F0020800F0020001000209418002069
S214000C30390A000030002401B50A0000410B00000C
S214000C4000E100E0FFFF0100350A00002817002041
S214000C50901800200368164A23F47F4323F0070306
S214000C6093420CD110B54368044613F0010016D128
S214000C705A0706D413F0020F18BF012010BD00203B
S214000C8070470022114640F2951004F0C5F86368DC
S214000C9013F0020F4FF0010018BF012010BD04F042
S214000CA0B3F863685A074FF00100E3D5E9E700BFE1
S214000CB0A000010330B50A4D0FCD87B001AC0FC4BC
S214000CC02B68236001A94FF0FF301AF003F820B913
S214000CD001214FF0FF301AF000F807B030BD00BF1A
S214000CE0944702000022114640F2831004F0F0B848
S214000CF070B5224D224E0FCD88B002AC0FC495E8D9
S214000D00030084E8030001211E4801F0AFFE012124
S214000D101D4801F0ABFE01241C4B0493304602A98B
S214000D208DF8164003F0F0FA23460422062102202E
S214000D3003F0A2F8224600230721022003F09CF8C5
S214000D40234604220821022003F096F804222346B4
S214000D501146002003F090F80D4BB3670B2249F2C2
S214000D603D6372670193019B002B05DD019B013BF0
S214000D700193019B002BF9DC08B070BDA847020068
S214000D800004014000350A000042040040420F0003
S214000D900B0B000B38B5144B144D10221A6014249C
S214000DA0FF21284603F04CFB013CF9D1104B0F4DB8
S214000DB010221A601E24FF21284603F041FB013C46
S214000DC0F9D10524FF21094803F03AFB013CF9D18B
S214000DD0054B064810251D60B92103F031FB044B76
S214000DE020461D6038BD00BF0CA000440004014032
S214000DF00CA00046FEE700BF08B500F075F8064BED
S214000E000648834206D2064A52F8041B43F8041BDF
S214000E109842F9D8FFF772FB00080020E413002080
S214000E20FC6F02000048704700F049020F4BD3F8F1
S214000E30943003F00703032B14D0042B0FD0022B9F
S214000E400AD00B4B1868094BD3F80031C3F30423C0
S214000E500133B0FBF3F07047064B1868F3E7064B18
S214000E601868F0E74FF40040EDE700BF00400E4082
S214000E7088100020841000208C10002008B5FFF792
S214000E80D5FF054B054AD3F80831C3F308230133D1
S214000E90B0FBF3F0106008BD00400E40801000204C
S214000EA0014B1868704700BF8410002008B50B4B34
S214000EB00B4A1860D2F8943003F00703022B00D0D8
S214000EC008BDFFF7B3FFD2F80831064AC3F308237C
S214000ED00133B0FBF3F0106008BD00BF84100020A3
S214000EE000400E4080100020044B054A9A60D3F85C
S214000EF0882042F47002C3F88820704700ED00E0B6
S214000F00000000004FF40040704700BF4FF47A70B6
S214000F10704700BF014B1868704700BF8C10002058
S214000F2008B50B4B0B4A1860D2F8943003F0070351
S214000F30042B00D008BDFFF779FFD2F80831064A27
S214000F40C3F308230133B0FBF3F0106008BD00BF05
S214000F508C10002000400E40801000202DE9F04F3D
S214000F60594C85B025789DF844A09DF84CE0002D9E
S214000F7066D0072A14465FD80E9A002A5CD00F9ACD
S214000F80002A59D0129AB2F5006F55DC01280646A1
S214000F900F464ED0DFF844914FEA041809EB0802DA
S214000FA0127B002A50D0494A00216501CDE9011183
S214000FB0039102EB050C002F48D157519CF8020014
S214000FC09CF80310CCF8047040F0100041F030019B
S214000FD0CCE902778CF802008CF80310BAF1000F07
S214000FE065D00093129B515B013B63F30E11515386
S214000FF015440E99EB78A9606EF383030F99696028
S214001000012EEB703CD0149B002B56D009EB080346
S2140010102046149C49F80840159D5D6000246246F1
S21400102069465E739C6002F0A7FF204605B0BDE8E7
S214001030F08F109A002AADD1254805B0BDE8F08F94
S214001040244805B0BDE8F08F2348F6E751519CF8D8
S21400105002B09CF80300CCF804104BF0100B40F0E4
S2140010600300CCE902118CF802B08CF80300BAF148
S214001070000FB6D1C1B241F030018CF80310B0E7D2
S2140010801323EB6095E80F0005F1100E8EE80F00B5
S214001090EA69109B6B616FF0030161F39F02012FF9
S2140010A0EA61B3D10F9BAB61109B6B60AEE7C9B230
S2140010B041F003018CF8031093E7AB78149A62F3BF
S2140010C00413AB70A2E700BF181A002018190020FE
S2140010D0018000F0028000F0078000F098180020E1
S2140010E038B5114B1B7883B188B1054602F070F90C
S2140010F00E4900220B461C7B103354B10132082ADD
S214001100F9D102F069F90A4838BD0A4838BD0A48DC
S21400111038BD13012A60CA180125CC50157302F099
S2140011205BF9204638BD00BF181A0020981800202A
S214001130048000F0028000F0018000F010B5174A2D
S21400114082B00023126801928DF8043002F040F954
S214001150134B1C78E4B901221A7002F03DF9114BCA
S21400116004220DEB02001C731C7783F82C4083F8D6
S2140011703C4083F84C4083F85C4083F86C4083F82E
S2140011807C408DF8072002F0CBFE204602B010BD52
S21400119002F022F9044802B010BD00BFC0470200AA
S2140011A0181A002098180020038000F0F0B589B0C7
S2140011B09DF838500F9C9DF84070119E039504943E
S2140011C0129D0193002400920B460246CDE9057657
S2140011D00795029421462046FFF7C0FE09B0F0BDF1
S2140011E0F0B589B09DF838500F9C9DF84070119E60
S2140011F003950494129D0193002400920B46024628
S214001200CDE905760795029420460121FFF7A6FE54
S21400121009B0F0BD08B50A4B1A786AB1072809D894
S214001220084A02EB00131B7B43B1002102F06EFE5E
S214001230002008BD044808BD044808BD044808BD91
S214001240181A002098180020018000F0028000F094
S214001250078000F008B50A4B1A786AB1072809D843
S214001260084A02EB00131B7B43B1012102F04EFE3D
S214001270002008BD044808BD044808BD044808BD51
S214001280181A002098180020018000F0028000F054
S214001290078000F008B50A4B1A7862B1072808D80C
S2140012A0084A02EB00131B7B3BB102F0B5FE0020A0
S2140012B008BD054808BD054808BD054808BD00BF6F
S2140012C0181A002098180020018000F0028000F014
S2140012D0078000F00D4B1B78A3B1072810D879B112
S2140012E00B4B03EB00131B7B73B10A4B01221B6AEB
S2140012F002FA00F018401ABF00200A700870704703
S214001300054870470548704705487047181A00207A
S2140013109818002000200E40018000F0028000F0A7
S214001320078000F00D4B1A7892B107280DD861B1EE
S2140013300B4A02EB00131B7B6BB110B50C4602F098
S21400134081FE00232060184610BD064B18467047E5
S214001350054B18467047054B18467047181A00206C
S21400136098180020018000F0028000F0078000F04E
S2140013702DE9F8431D4E326EF36E12EA030834D49C
S2140013801B4CDFF870900127002506E00135082D7C
S2140013904FEA470704F1100425D018EA070F28463D
S2140013A0F4D02368B766002BF0D0D4E901210131D0
S2140013B0A1609847637B012BE8D109EB451303F145
S2140013C0080218330028E1D1117960F34101117148
S2140013D01A79013560F34102082D1A714FEA470762
S2140013E004F11004D9D1BDE8F883FEE700200E40D2
S2140013F09818002018190020054B4FF480214FF450
S2140014008062C3F880111960C3F880211A607047A3
S21400141000E100E038B504460D4601F0D9FF034B65
S21400142043F82450BDE8384001F0D6BF1C1A00200F
S2140014300E4B70B5D3F82844D3F81C1445F2555219
S2140014400C401440C3F824447CB1094E012594FA9C
S214001450A4F0B0FA80F005FA00F256F8203024EA3C
S214001460020403B19847002CF1D170BD00A00040E3
S2140014701C1A00200E4B70B5D3F82844D3F81C1461
S2140014804AF6AA220C401440C3F824447CB1094E04
S214001490012594FAA4F0B0FA80F005FA00F256F8A6
S2140014A0203024EA020403B19847002CF1D170BD25
S2140014B000A000401C1A002008B5034B1B6803B1AF
S2140014C09847012008BD00BF601A002038B5124DAD
S2140014D02B6804460BB1984768B1631E032B05D8EA
S2140014E0DFE803F00A11150202F0CEF96B68204619
S2140014F00BB19847204638BD084A136923F0040309
S214001500136130BFF2E7002002F060F9EEE700203A
S21400151002F082F9EAE700BF641A002000ED00E05E
S2140015200B4A0C4B70B510600B4C0C4D00221A8009
S214001530C4E9005102F0D2FDC30300D470BD02F02E
S214001540C7FD6368002BF9D00420BDE8704018473B
S214001550601A00205C1A0020641A0020B9140000EB
S2140015602DE9F041184D01F02BFF2B78804613B97A
S21400157002F086F92B78154F002483B96B78002B80
S21400158014BF02200320FFF7A1FFBB6806460BB17D
S21400159098470446E30704D52B78002BEED00120AD
S2140015A0F1E7B31EDBB2012B05D9404601F00CFF74
S2140015B03046BDE8F08102F065F9404601F004FFD0
S2140015C03046BDE8F08100BF5C1A0020641A002097
S2140015D00238C3B2012B03D8024A135C01331354FA
S2140015E0704700BF5C1A00200238C3B2012B00D936
S2140015F07047034A135C002BFAD0013B1354704724
S2140016005C1A0020054B1A782AB95B78002B0CBFB1
S2140016100320022070470120704700BF5C1A00209C
S21400162038B504460D4601F0D3FEA3889BB253B1ED
S214001630638803EB830304EB830408342C6001F017
S214001640CBFE002038BD2B6001F0C6FE004838BD3A
S2140016500B7000F070B504460E4601F0B9FEA38884
S2140016609BB2BBB163886288E58803EB830304EB17
S214001670830301320833336092FBF5F305FB132333
S2140016809BB26380A388013B9BB2A38001F0A4FEBB
S214001690002070BD336001F09FFE014870BD00BFA2
S2140016A00B7000F030B504460D4683B0C07DE17E79
S2140016B0E5B10123042202F0DFFB01230222217F91
S2140016C0207E02F0D9FB94F83130022B36D0032B63
S2140016D01CD1617F607E0023012202F0CDFB002337
S2140016E00422A17FA07E02F0C7FB0FE02B462A460D
S2140016F002F0C2FB2B462A46217F207E02F0BCFB6E
S21400170094F83130022B04D0032B2CD0002003B0E9
S21400171030BD2B462A46617F607E02F0ADFB2B462D
S2140017202A46A17FA07E02F0A7FB627F607E01951D
S21400173001231146009302F04BFBE7E7617F607ED2
S2140017400023012202F098FBA17FA07E0023042242
S21400175002F092FB627F607E01231146CDE90033E2
S21400176002F036FBD2E72B462A46617F607E02F007
S21400177083FB2B462A46A17FA07E02F07DFBC5E7B1
S21400178090F83230012280F82C202BB1012B03D0A8
S214001790002380F82C30704703680A6830B50D4681
S2140017A087B0044601696D6880680494054C01950D
S2140017B00394002501241C3302950094FFF710FDC6
S2140017C007B030BD351E000090F83230012280F898
S2140017D02D20ABB90268343230B50D4687B00446CA
S2140017E00B686D68C168406804940A4C01950394C0
S2140017F00025012402950094FFF7D8FC07B030BD01
S214001800012B03D0002380F82D3070470268283261
S214001810E2E700BF19180000F0B583B0906A01A98E
S2140018201446FFF7FDFE154B98421BD0019B002582
S2140018301D619D6001F0CCFD019AD668074626B171
S2140018402946D2E900232046B04701A9A06AFFF73F
S21400185001FFA06A83889BB23BB984F82D303846D6
S21400186001F0BAFD012003B0F0BD01A9FFF7D8FED4
S21400187020460199FFF7A8FFF1E700BF0B7000F0C4
S214001880427E054B417F02EB4202D20113440B44D9
S2140018909B001868C0B27047E000851010B51D4B5D
S2140018A082B003F1100153F8044B627F824203D0EA
S2140018B08B42F8D102B010BD94F83130022BF9D12A
S2140018C02046FFF7DDFF637D2075022BF2D194F8EA
S2140018D02E3003F0FF02002BECD102A9606801F85D
S2140018E0012DFFF7F7FC237D63B194F82F304BB939
S2140018F00028DFD19DF80730002BDBD06068FFF7AB
S21400190089FCD7E7002384F82F306068FFF7A2FC35
S214001910D0E700BF701A002090F8323053B9026842
S2140019200123D3601369D807FCD5536F43F0010336
S21400193053677047012B00D0704703685A6C9107B5
S214001940FCD401225A609A68D207FCD55A6D42F040
S21400195001025A65704700BF90F832306BB1012B18
S21400196000D070470268536C9B07FCD4536D02216D
S21400197023F0010353655160704703685A6F0221D4
S21400198022F001025A67D960704700BF10B50446BE
S214001990FFF7D4FB201D0021FFF7A2FB30B901465C
S2140019A004F10800FFF79CFB00B910BD004810BD0D
S2140019B00E7000F003689B6803F00200DA0748BF69
S2140019C040F00100590748BF40F008001A0748BF1A
S2140019D040F02000D90648BF40F040009A0648BFB5
S2140019E040F080005B0648BF40F40050704700BFE0
S2140019F0F8B5044609200D46164601F0EFFC0746EA
S214001A00A26A03E094F82E3023B977BB93889BB282
S214001A10002BF7D194F8323003BB2068076917F023
S214001A2002074DD10423C36003699907FCD5436FB1
S214001A30012243F00203436784F830203EB12E446F
S214001A4015F8011B02F006FDB5422068F8D10369BF
S214001A509906FCD5002F37D00020F8BD012B07D003
S214001A60012384F830300020F8BDFFF781FCC7E77B
S214001A702068876817F0020718BF84F830300FD048
S214001A803EB12E4415F8011B02F0FCFAB542206860
S214001A90F8D183681A07DDD483681A07F9D5D9E721
S214001AA0436C9A07FCD40423436083689B07FCD5E9
S214001AB0436D012243F00203436584F83020DFE7DC
S214001AC0012384F83030B9E794F8323063B1012B43
S214001AD0C2D12268536C9B07FCD4536D082123F0B7
S214001AE0020353655160B7E723685A6F082122F056
S214001AF002025A670020D960F8BD00BF10B590F802
S214001B002E30012B044607D094F82E30013BDBB272
S214001B1084F82E30002010BD90F83130022B03D010
S214001B206068FFF797FBEFE7FFF7AAFE0028F7D0FD
S214001B30EAE700BFF8B5044617460D4601F048FC34
S214001B40A388E2889A422BD9268884460FCD06EBD6
S214001B508606B600083604EB060EA051CEF8041032
S214001B60CEF80820CEF80C302868CEF8100023886F
S214001B702288E088511C03EB830391FBF0F204EB10
S214001B80830300FB121292B208333B602280A388C4
S214001B9001339BB26046A38001F01EFC0020F8BD16
S214001BA000233B6001F018FC0048F8BD0A7000F006
S214001BB0002849D02DE9F04182B00D46044601F0D8
S214001BC007FC012D074619D0022D3FD1636A9B887A
S214001BD09BB2002B46D0A068FFF75CFB0023606A30
S214001BE084F82C3083889BB2002B61D194F8313076
S214001BF0032B1CD02046FFF7AFFE18E0A36A9B8895
S214001C009BB2002B2ED06068FFF744FB0023A06A2F
S214001C1084F82D3083889BB253BB94F832306BB96E
S214001C20236818698304F8D5023D012DD3D93846B8
S214001C3001F0D2FB002002B0BDE8F081012BEED10E
S214001C402046FFF7B7FEEDE728487047032DEBD197
S214001C50A36A9B889BB2002BD5D1636A9B889BB2F4
S214001C60002BD0D101F0B8FB214802B0BDE8F081CE
S214001C7001A9FFF7D5FC019960680831FFF752FB10
S214001C801C4B019A9846136104E0FFF7E3FC019BA6
S214001C90DE683EB9A36A18469B889BB201A9002B52
S214001CA0F3D1BAE79B68002241462046B047F1E7E9
S214001CB06946FFF7B5FC0099A0680E4E0831FFF79D
S214001CC031FB009B1E61636A18469B889BB269467F
S214001CD0002B8BD0FFF7BEFC009BDD68002DF2D0FA
S214001CE09B68002231462046A847ECE7027000F0C9
S214001CF0087000F0097000F02DE9F0410546406AD2
S214001D00848882B00026A4B20096019617460E4636
S214001D10984694B90021C8F800103960316095F8EB
S214001D2032302BB1012B1ED0002002B0BDE8F0816E
S214001D302B68186902B0BDE8F0816946FFF770FCB1
S214001D4001A90446A868FFF7EDFA009A002AE1D038
S214001D50002CDFD1D2E9002301995B1A3B60C8F85A
S214001D6000103260DBE72846FFF724FE02B0BDE82D
S214001D70F08100BF98B110B590F82E30044633B904
S214001D8090F83130022B0CD06068FFF743FA94F8D5
S214001D902E300133DBB284F82E30002010BD03480D
S214001DA07047FFF76DFD0028EED0F0E7027000F0F8
S214001DB070B590F83150022D82B003461AD0012D2E
S214001DC002D0002002B070BD037D044602AE63B3AD
S214001DD0132306F8013DFFF7CDFF2A46314620467D
S214001DE0FFF706FE94F82E30002BEAD02046FFF7C9
S214001DF085FEE6E7827E857F0D49447D02EB420242
S214001E00120101201144A8404CB1012C01D01B7DC9
S214001E102BB101F1C0610860002002B070BD01F175
S214001E2080610860002002B070BD1123D1E700BFBA
S214001E300CA0004070B582B0506A01A91446FFF7A6
S214001E40EFFB344B984235D094F83220019B002AA1
S214001E5033D12068016C11F4007106D09A602E49C7
S214001E6019614FF40072826405E0026CD50541D416
S214001E7000221A619A6001F0ABFA0199CD68064615
S214001E8035B1D1E900208B680969C31A2046A847F6
S214001E9001A9606AFFF7DEFB606A8588ADB2D5B13E
S214001EA001A9FFF7BDFB20460199FFF769FC304604
S214001EB001F092FA012002B070BD012AD8D1216843
S214001EC0CA6A12F080021CD0134A1A6100208022CF
S214001ED098604A63CFE7012323752046FFF768FF23
S214001EE094F8313084F82C50032BE0D02046FFF7CE
S214001EF033FDDCE7094D99604FF480721D61826402
S214001F00B9E7C86A4006B3D59A600448186140220B
S214001F104A63B0E70B7000F00D7000F00C7000F034
S214001F202DE9F041894D06460F460FCD88B001AC2D
S214001F300FC495E8070084E80700B6B1002F35D037
S214001F4034220021304622F004FB814A814913786E
S214001F503D46344673B10023084650F8042B7AB148
S214001F6094420DD00133042BF7D17B4E304608B097
S214001F70BDE8F081C1E90033C1E9023301201070E9
S214001F802A6841F82340754B297C84F831109A4220
S214001F904FF00001226084F832100CD0704B9A4249
S214001FA000F0A0816F4B9A4200F0C7806E4E30461C
S214001FB008B0BDE8F0816D4B6D4A23624FF44023B4
S214001FC0C4E90323D5E9062369686889B5F80CC017
S214001FD0626200261680052756809680AA7B84F8C3
S214001FE02C60A3621E805E809E80EB7B0391ADF822
S214001FF0140001215F4884F82D6084F82F60ADF846
S21400200012C08DF810208DF816308DF8117000F083
S2140020102DFD0121584800F029FD0121206A00F01D
S21400202025FD01A928688DF8046002F00FF92868DC
S2140020306A7A836F297AD4F800C0DFF820E123F4A7
S214002040F85323F01F03134343EA01238367F44541
S2140020504FF00303436700F095804148844500F045
S2140020604981404B9C45A1D1002900F04C824B1E73
S2140020700C2B40F21483A1F10E03062B8CBFFF231A
S2140020800523E375002A00F0DE82012A00F089832A
S214002090931E0A2B40F20D83A2F10D03062B40F28D
S2140020A0B083A2F11403092B40F203831F2A14BF46
S2140020B0FF2300232376002900F00683012900F081
S2140020C09D838B1E0B2B40F2FD820E2900F0A3830E
S2140020D00F2900F09E83102900F07C83112900F060
S2140020E07783122900F07283132900F06D83142978
S2140020F014BFFF230723E376002A00F00D82531E49
S2140021000B2B40F209820D2A00F0B3830E2A00F052
S21400211058830F2A00F05283102A00F06883112A91
S21400212008D0122A00F07283132A00F06C831F2A4C
S21400213040F0F28105232377A7E0104B104A236274
S2140021404FF46023C4E903233CE700BFD4470200F2
S214002150801A0020701A0020027000F00000014073
S2140021600004014000080140037000F00032040043
S21400217001000C004041050000350A000052040032
S21400218001000E00002900F0B481481E042816D96C
S214002190881F042840F2CE82A1F10B00B84240F21C
S2140021A01B83A1F11100062840F24A83A1F118030F
S2140021B0062B40F243831F2914BFFF263E46E675D2
S2140021C0002A40F047820129227600F02683022961
S2140021D000F06D82032952D0042950D005294ED034
S2140021E0062900F0A982072900F0B482082900F029
S2140021F0B782092900F0BA820A2900F0BD820B29AD
S21400220000F012830C2900F013830D2900F00E83D2
S2140022100E2900F025830F2900F02083102900F0F6
S2140022208B82112900F01C83122900F017831329D2
S21400223000F08282142900F08D82152900F0908229
S214002240162900F09382172900F09682182900F0CC
S2140022500383192900F0FE821A2900F0F9821B294F
S21400226000F0F4821C2900F0EF821D2900F0EA82BB
S2140022701E2900F0D9821F2914BFFF210721E1760D
S214002280002A40F07B81012222776B7C6376AB7C50
S2140022906377EB7CA3762B7DA37701212046FFF79F
S2140022A001FA064600287FF461AE01F091F82F7C13
S2140022B0032F804600F0E181022F00F00F8228688D
S2140022C04FF0FF338364042101F0B8FF2B684FF40E
S2140022D040622046DA60FFF759FB0646404601F0AA
S2140022E07BF843E6E14BE24A23624FF45023C4E90D
S2140022F0032367E6002900F01281481E042816D939
S214002300881F042840F21C82A1F10B00052840F229
S2140023104682A1F11100062840F28E82A1F1180330
S214002320062B40F287821F2914BFFF260526E67576
S214002330002A00F09581012A00F09682931E022B57
S21400234040F2B981531F042B40F2F081A2F10A0338
S214002350052B40F22B82A2F11003062B40F22482BA
S214002360A2F11703072B40F27D821F2A14BFFF231A
S21400237000232376002900F0AF81012900F0778240
S214002380022954D0032952D0042950D005294ED012
S214002390062900F0D381072900F0DE81082900F025
S2140023A0E981092900F0E4810A2900F06B820B29F3
S2140023B000F066820C2900F061820D2900F05C8234
S2140023C00E2900F06F820F2900F06A82102900F0B3
S2140023D0B581112900F06682122900F06182132966
S2140023E000F0AC81142900F0B781152900F0C281F5
S2140023F0162900F0BD81172900F04482182900F044
S2140024004D82192900F048821A2900F043821B29C0
S21400241000F03E821C2900F039821D2900F034822B
S2140024201E2900F02D821F2914BFFF210721E17607
S214002430002A00F00281012A7AD0022A00F03D81AB
S214002440032A00F06081042A00F06281052A00F069
S2140024506A81062A00F07681072A00F07881082A29
S21400246000F08C81092A00F08E810A2A00F08E8105
S2140024700B2A00F091810C2A00F08B810D2A00F0C7
S2140024809A810E2A00F094810F2A00F04C81102ABF
S21400249000F09181112A00F08B81122A00F043810E
S2140024A0132A00F04F81142A00F05181152A00F0FB
S2140024B06581162A00F06781172A00F09581182A90
S2140024C000F0BB80192A33D01A2A00F0F6801B2AA7
S2140024D000F019811C2A00F01B811D2A00F056818D
S2140024E01E2A00F059811F2A14BFFF2100212177E0
S2140024F0CBE6E175002A00F0A380012A1BD12176E5
S214002500E1760222C0E6E17512B1012A7FF4C0AD81
S214002510FF2323760523E376FF232377B5E6E175CD
S214002520002A00F0A780012A7FF408AF2176E17622
S21400253002212177A9E6931E022B40F2B680531F94
S214002540042B40F2EA80A2F10A03052B40F20A812E
S214002550A2F11003062B40F26581A2F11703072BA8
S21400256040F25E811F2A14BFFF2300232376002932
S21400257000F09780012940F0D280E176012AC0D091
S214002580022A00F09080032A00F09A80042A00F0C5
S214002590BD80052A00F0BF80062A00F0C980072A01
S2140025A000F0D380082A00F0D980092A00F0DC80E9
S2140025B00A2A00F0E6800B2A00F010810C2A00F0B0
S2140025C011810D2A00F00C810E2A00F015810F2AC9
S2140025D000F0A180102A00F00381112A00F00C817F
S2140025E0122A00F09880132A00F0A280142A00F025
S2140025F0AC80152A00F0B280162A00F0B580172AA3
S21400260000F0F880182A3FF43EAE192A3FF479AF5E
S2140026101A2A48D01B2A53D01C2A77D01D2A00F02D
S214002620B0801E2A00F0DA801F2A14BFFF22002284
S2140026302AE602297FF4A6AEE1760121217724E678
S2140026402276E2761FE6FF23012923763FD1E37642
S21400265023771AE6012A7FF46EAF0023237689E7F4
S21400266001292276E5D1E17621770EE600420400C4
S21400267001000D002276E276DFE728682B8CC36720
S214002680436E43F004034366436F4FF0FF3243F05C
S214002690300343678264052101F0D0FD16E6FF2370
S2140026A0EFE4E1766CE70322EEE500235EE7E176F1
S2140026B0E9E5FF23FEE400235BE603212177E4E55A
S2140026C00422E1E5FF2316E50523E37617E5881ED9
S2140026D00B283FF6FAAC1EE7E176AEE6FEF78CFE78
S2140026E07149607FFEF796FEA675267567752046CB
S2140026F0FFF75EFB2B7C28684FF0FF32032B8264CB
S2140027007FF4E1ADC7E704212177BEE50522BBE5EE
S21400271005212177B9E50B22B6E5012326E7022934
S2140027207FF458ADABE50B212177AEE5012320E61B
S2140027300C22A9E5012642E50B21A0E50B2176E651
S2140027400126F4E50C2121779FE50D229CE50D215D
S21400275021779AE50C2192E50C2168E60E2293E596
S2140027600D218CE5022301E70F228DE50E2186E57B
S2140027700E215CE60D215AE60F2180E50E21217719
S21400278083E5062280E50F2121777EE50621217765
S2140027907BE50821217778E50721217775E5022674
S2140027A0C5E5FF23237689E40323E2E50223E0E57B
S2140027B00A21217769E50921217766E50323237736
S2140027C063E50123237760E5062394E4052392E47A
S2140027D0042390E403238EE40226F0E4072253E564
S2140027E0092251E508224FE5002121774DE5042313
S2140027F023774AE5002247E50A2245E5FF23E376EC
S2140028007DE4052356E4072323773EE50623237756
S2140028103BE501236FE400236DE4E1760A4633E5E9
S2140028200523A3E60323A1E6062128E5082126E5DD
S214002830072124E53E467AE51E4678E53E46BEE498
S2140028401E46BCE405211AE5042118E5032116E519
S214002850022114E5012112E5002110E50A210EE50A
S21400286009210CE5052384E50023237685E5E1763A
S214002870E1E50023237708E50821D8E50721D6E51A
S2140028800621D4E50F21D2E50521D0E50421CEE5C9
S2140028900321CCE50221CAE50121C8E50021C6E5F1
S2140028A00A21C4E50921C2E59D18000070B586B06E
S2140028B050B329B3541EB4F5006F21D2144E0191C3
S2140028C0144605466A46406A029401A90394CDE977
S2140028D00436FFF72FF9044698B995F82C3083B9DB
S2140028E02846FFF719F800992846FEF749FF95F89D
S2140028F03130032B05D02C752846FFF759FA00E037
S214002900044C204606B070BD034C204606B070BD91
S214002910017000F0037000F0027000F070B586B031
S21400292028B301B3541EB4F5006F1CD2164E0191A5
S214002930144605466A46806A029401A90394CDE9C6
S2140029400436FFF7F7F8044670B995F82D305BB9F2
S21400295000F03EFDAB6A9B889BB206465BB93046EC
S21400296000F03AFD00E0094C204606B070BD084C69
S214002970204606B070BD00992846FEF725FF0123C5
S21400298085F83030EBE700BF017000F0037000F010
S214002990027000F010B4134B134A5B680024C9B2EF
S2140029A08C42234608D00133052B02F1080215D0CD
S2140029B012F8084C8C42F6D152F80C4C8442F2D3F2
S2140029C00A4A02EBC3035B791A0606495DF8044B14
S2140029D04B6823F0407313434B6070474FF04072D0
S2140029E0F3E700BF00000E400C480200004802005B
S2140029F038B5074C41F67133256C2364FEF712FA9E
S214002A000021FFF7C7FF0DB10023236438BD00BFC8
S214002A1000000E400C4A0D4BD2F89010516A21F07F
S214002A20300141F0100110B45162146BC0F3C311B1
S214002A30033123400F2928BF0F21034343EA0173C4
S214002A4013635DF8044B704700400E4000F8FF0F1C
S214002A5038B5054C41F67133256C2364FFF79AFFB1
S214002A600DB10023236438BD00000E40C0F30323DD
S214002A70013B30B4092B0CD8DFE803F00D110B0B2B
S214002A80152D190B2705164CC0F304302044800082
S214002A90016030BC7047C0F30430124CF6E7C0F358
S214002AA00430114CF2E7C0F30430104CEEE7104C43
S214002AB0C0F3043010250F4BD3F84421D207E5D4D9
S214002AC0D3F840212A42FBD1E0E7C0F304300A4C99
S214002AD04FF48035EFE7C0F30430084C0125EAE7F1
S214002AE0800AF2100000F2100006F2108005F210C4
S214002AF04007F21000400E408007F2100007F21068
S214002B0000F00F000138072847D8DFE800F0121D54
S214002B103346283E4604264BD3F85C3103F0300398
S214002B20202B40D0302B40D0102B0CBF072001208C
S214002B3070471F4BD3F8943003F00703023B052B76
S214002B402FD81C4AD05C7047194BD3F8803003F05E
S214002B500703013B032B22D8174AD05C7047144B5F
S214002B60D3F8883003F00703013B032B17D8134A2A
S214002B70D05C70470E4BD3F8843003F00703013B5C
S214002B80032B0CD80E4AD05C7047094B1B6F13F012
S214002B90010F14BF0920072070470020704701204E
S214002BA0704705207047042070470820704700BF14
S214002BB000400E40F0470200F8470200F8470200C7
S214002BC0FC47020008B50146FFF79AFF1E4B9942E4
S214002BD02FD01E4B994226D01D4B99421DD001384E
S214002BE0032803D8DFE800F01511042B002008BDE9
S214002BF0FEF744F9174BD3F80031C3F300635A1CB1
S214002C0001239340B0FBF3F008BDBDE80840FEF793
S214002C1081B9BDE80840FEF775B90E4BD3F88000C1
S214002C2000F00700DBE70B4BD3F8880000F0070046
S214002C30D5E7084BD3F8840000F00700CFE7BDE8DF
S214002C400840FEF763B900BF03001E00050022001F
S214002C5002001C0000400E4000F47810B0F5A01FE3
S214002C6000F0BD8008B51BD9B0F5F01F33D054D99D
S214002C70B0F5301F34D066D9B0F5381F6BD0B0F53C
S214002C80401F1AD15748FFF73BFF072842D00828B5
S214002C9000F09B80042810D1BDE80840FEF700B97C
S214002CA0B0F5202F13D00AD9B0F5602F2DD0B0F58F
S214002CB0801F2FD0B0F5402F1CD0002008BDB0F5E7
S214002CC0003F73D0B0F5802F65D00028F5D1BDE861
S214002CD00840FEF7ABB84448BDE80840FFF772BFAF
S214002CE04248FFF76FFF424BD3F82031C3F301137E
S214002CF0D84008BDFEF79AF83D4BD3F81431C3F31D
S214002D0004230133B0FBF3F008BD3A48FFF7F8FEA2
S214002D10072856D1384B186808BDB0F5C01F2DD00F
S214002D20B0F5E01F25D0B0F5B01FC6D12F48FFF78D
S214002D3049FF2F4BD3F82021012302F00F029340C6
S214002D40B0FBF3F008BDB0F5081FB6D12B48BDE8C0
S214002D500840FFF737BF2448FFF734FF244BD3F86B
S214002D602831C3F301231A1D01239340B0FBF3F06F
S214002D7008BD1E48BDE80840FFF724BF1A48FFF705
S214002D8021FF1B4BD3F828210123C2F301129340E5
S214002D90B0FBF3F008BDFEF749F8154BD3F80C313D
S214002DA0C3F308230133B0FBF3F008BDFEF73EF88B
S214002DB00F4BD3F80831C3F308230133B0FBF3F00D
S214002DC008BD09287FF479AF81E7FEF72FF8084B96
S214002DD0D3F80031C3F3042303FB000008BD074803
S214002DE0FFF7F0BEB800300003001E0002001C0013
S214002DF000400E4006000E00901000200500220045
S214002E0038B501461120FFF77BFE1B4B1B4A0820F6
S214002E1018661368002BFCD1174A0D7C536A1848B5
S214002E200C7823F00103022D08BF43F00103536220
S214002E3004608B88487ACD8840EAC320D062136B42
S214002E400C7A887A03F07F630343E01C0F2843EA7A
S214002E50C52343EAC41328BF0F2043EA0073136355
S214002E608B7B4C7BC87B097B1B0143EA0433034303
S214002E7043EA0143536338BD00400E400812C8437E
S214002E80A004C84338B501461120FFF739FE0C4BA5
S214002E900C4A4FF4007018661368002BFCD18B7830
S214002EA04D780C78C878084A08491B0643EAC523BB
S214002EB0234343EA002306480860136038BD00BF7A
S214002EC000400E402012C84338400E4638400E449C
S214002ED07F1B00070F4B5B6A13F0300F06D02029CC
S214002EE014D0302902D009B10B4A01E04FF4400259
S214002EF00849D1F8903032EA0303FAD1530246BFAC
S214002F00D1F8A000C0F38020012070474FF40002E3
S214002F10EEE700BF00400E40FF33E13FF8B504285F
S214002F2015D8DFE800F021152D4328000021374C86
S214002F3026661C68002CFCD04AB1354C2C44A400F4
S214002F402368002BFCD0022801D100293CD1F8BD13
S214002F50304B8024402607250029E7D12B4A1466EB
S214002F601A68002AFCD1F8BD2B4B4FF400744FF4BE
S214002F7080760925F0E7294B202410260525EBE767
S214002F8000293FD0214C636A13F0300F13D1244B35
S214002F90DB6B636ADB0713D5656A224B25F03005C9
S214002FA045F01005656204260325C0E70126354670
S214002FB01D4B0224D0E71B4B042603250021B6E751
S214002FC0184B04260325B2E7104A104D516A11F03B
S214002FD001011FBF20214FF48063C2F8A83051665C
S214002FE0FFF778FFD5F89C70012200210220FFF73A
S214002FF095FFC7F30A00FFF70DFD2E662368002B2A
S214003000FCD0F8BD074B0824A8E700BF00400E40E0
S2140030108004F2101812C8432012C8431012C84386
S21400302000300E400812C8430012C8431128F8B5F5
S2140030300C460DD000F00F000138072807D8DFE84F
S21400304000F00C6466063F5B062904232B60F8BD7F
S214003050042900F0908005295BD00025023C0A2C4C
S214003060F5D801A353F824F089320000513200004D
S21400307057320000713200004F3000004F30000021
S2140030804F3000004F3000004F300000CB310000C2
S2140030908F3200004C1E072CD9D801A353F824F019
S2140030A0C73100004F3000004F300000B93100003B
S2140030B04F3000004F300000AB3100009731000069
S2140030C0774D013C092CC2D801A353F824F000BF69
S2140030D07331000065310000573100004F300000AA
S2140030E04F300000273100004F3000004F30000006
S2140030F04F3000004B300000072900F0CD80092932
S214003100A5D1684B01221A67F8BD674DD9E7674D10
S214003110D7E7674A674B15689D429ED90021284627
S21400312000F006FC9AE7FDF7A9FE634B984229D803
S21400313000231C4661495B4A0C60D2F8000101F589
S214003140AE51083120F0807018430124C2F8000107
S21400315003230C607AE7012211461046FFF7DEFED5
S214003160012373E7012211460020FFF7D7FE022352
S2140031706CE700236AE7FDF793FE054600283FF458
S2140031806CAFCBE74E4B012498428CBF4FF00073D8
S2140031904FF08073CEE73021424AD2F85C3123F0FC
S2140031A030030B43C2F85C31F8BD012211460420FF
S2140031B0FFF7B4FE1021EFE7012211460220FFF7C9
S2140031C0ADFE2021E8E70021E6E7032005240122E2
S2140031D01146FFF7A3FEFFF70BFC1DB1394A136833
S2140031E0002BFCD12F4B38485C67FFF735FD324B80
S2140031F098424ED9324B012498428CBF4FF0007350
S2140032004FF080732D49274A0C60D2F8000120F059
S21400321080701843C2F80001FDF730FE294B1C6889
S214003220002CFCD1294B2A4E5968376C41F6713375
S214003230C1F301413364FFF7ADFB07B13464002DE1
S2140032407FF405AF28460121BDE8F84000F070BBCA
S21400325001200324BBE7194B124A01211960D2F85A
S2140032600031022043F08073C2F800310446AEE716
S214003270124B0C4A01241C60D2F8003143F08073D4
S214003280C2F800310320A2E7002004249FE70724A9
S214003290A1E700231C46B5E7024B00221A67F8BDDB
S2140032A088400E4000400E4080400E4084400E4055
S2140032B088100020002D31010048E8014000C84376
S2140032C00090D003C800C64300250A0000300E4018
S2140032D000000E402DE9F041002A46D02F4B304A20
S2140032E012685D6A002925F0405545F0005314BF6A
S2140032F04FF0805500251D43FDF7D2FD01210646FF
S21400330000F016FB274B1C68002CFCD1244B264FE4
S2140033105968D7F8408041F67133C1F301413B64E8
S2140033203046FFF737FBB8F1000F00D03C641F4B68
S2140033309E4228D91E4B01249E428CBF4FF0007639
S2140033404FF080761B4B154A1C60D2F8003123F0F4
S21400335080733343C2F80031012211460220FFF782
S214003360DDFD0E4B5D62BDE8F0810C4B5D6A25F01D
S214003370405551B9FDF794FD012100F0D9FA074BED
S2140033805D62BDE8F0810026DCE7FDF789FD0121DE
S21400339045F0805500F0CCFADEE700BF00400E4056
S2140033A000300E40C800C64300000E400048E8014A
S2140033B00090D0034000C84372B6704762B67047AC
S2140033C0EFF3108072B6704700B962B6704700BF60
S2140033D0EFF3108072B67047FFF7F6BFEFF3108377
S2140033E0DA0732D4214A4309C1B252F8233010B466
S2140033F001F01F04E340DB0723D5002827DB104439
S21400340090F800034209EFF3118313B1B2EB531F98
S21400341017D217494868C0F3080098B11038C0B2F0
S21400342043B2002B1ADB03F1604303F5614393F8C4
S21400343000034009824234BF002001205DF8044B9F
S214003440704701205DF8044B704701207047094B18
S21400345001F00F010B44187E4209D4E700F00F0379
S214003460043B0B44187E4009E4E700BF00E100E09F
S21400347000ED00E0FCEC00E0024B9B6803EB8000F4
S2140034800164704700ED00E0F0B4049F9DF814500E
S21400349053B1002465B1A14213D950F8246042F814
S2140034A024600134A342F5D1074BF0BC9A60704704
S2140034B0A14252F8246002D9002EF2D1EDE7002E88
S2140034C0EFD142F82470ECE700ED00E00E294368E7
S2140034D016D8012210B48A4047F2E004224223F0B4
S2140034E01F0306D041F01001194341605DF8044BFC
S2140034F0704740F61F742242F6D15DF8044B7047C1
S214003500704700BF70B4056A046A036A066ACE6034
S214003510102AC1E900548B6007D1046A026A036A64
S214003520006AC861C1E904428B6170BC704700BF85
S21400353042EA032340F2011293425BD0B3F5817F47
S21400354014D340F2012293424BD030D9B3F5407FDA
S21400355024D040F2013293423ED12B4BD3F878313F
S2140035601A0EC3F3074303600A607047012B2AD084
S2140035700BD3B3F5807F2FD1234BD3F86C311A0EC3
S214003580C3F3074303600A6070471F4BD3F86C31E0
S214003590C3F30722DBB203600A6070471A4BD3F806
S2140035A070311A0EC3F3074303600A607047B3F521
S2140035B0007F11D1144BD3F87031C3F30722DBB26E
S2140035C003600A607047104BD3F87431C3F30722C8
S2140035D0DBB203600A6070470022134603600A608D
S2140035E07047094BD3F87831C3F30722DBB2036088
S2140035F00A607047044BD3F874311A0EC3F30743BE
S21400360003600A60704700BFB081E00F094A136884
S214003610002BFCD1084B19685A68C1F30121C2F38C
S214003620014291421A688CBF42F0100222F010024A
S2140036301A607047C800C64300300E40044B1B6932
S214003640C3F30443082B02D1024B034A1A607047A7
S21400365000400E4088100020C0EA2101154B0228C9
S214003660D3F8803122D003281ED0012814BFDBB245
S214003670C3F307231B0323F4704241B992B90E49E2
S214003680CA6E22F470421343CB66012070474AB9D3
S2140036900949D1F8E02022F470421343C1F8E03023
S2140036A001207047002070471B0EE3E7C3F3074373
S2140036B0E0E700BFB081E00F00300E4070B5274B4A
S2140036C0274C1978274B284D284AC1F102001021B3
S2140036D08140216145F60E01D3F88041C3F8801180
S2140036E0286840F25511014004F001041966136879
S2140036F0002BFCD11A4B1B68D80617D5194AD2F8EE
S2140037004031D901FBD41A4E1A4B31781B6813612D
S214003710052916D01120FFF789FC2B68DB070CD58E
S2140037201CB1104B0022C3F8802170BD104E3178BA
S2140037300529EFD12B68DB07F2D40A4B02221A6662
S214003740EEE70D4B094A18681368002BFCD1044BB2
S2140037505968C1F30141FFF77BF9E8E7951A0020A5
S21400376000300E4000400E40841A0020C800C643B9
S2140037708E1A0020901A0020881000200C4A08B5E7
S2140037800C4BD2F890201A601120FFF7B9F90A4BBB
S2140037900A4A18701368002BFCD1094B09485B686D
S2140037A00349094AC3F3014303700B69136008BD5C
S2140037B000400E40841A00208E1A0020C800C6431F
S2140037C000300E40951A0020901A002010B50446CE
S2140037D0B0B9FFF71BFF0E4A136943F004031361E9
S2140037E030BF84B90B4B1B68DB0603D4BDE8104022
S2140037F0FDF744BBFFF722FFBDE81040FDF73EBBD8
S214003800FFF7BCFFE5E7BDE81040FFF757BF00BF76
S21400381000ED00E000300E4010B5044618BBFFF780
S214003820F5FE144BD3F88021D20748BF002245F698
S2140038300E01C3F8801148BFC3F880210E4A1369F1
S21400384043F00403136130BF84B90C4B1B68DB06DE
S21400385003D4BDE81040FDF711BBFFF7EFFEBDE84F
S2140038601040FDF70BBBFFF789FFD8E7BDE8104017
S214003870FFF724BF00400E4000ED00E000300E4091
S214003880FFF77CBFFFF71ABF0A4B9A69996922F4C3
S214003890403242F4003241F440314AF6E850986033
S2140038A09A6199619A6199619A6199619A6199613F
S2140038B09A61704700300E401A4B2DE9F041D3F85C
S2140038C0003104460E46FDF7B1FA174A074613685C
S2140038D0002BFCD1DFF85480D8F80430C3F3014342
S2140038E09C420ED0C4F102031025022C05FA03F503
S2140038F00FD0C8F810501EB10B4A1368002BFCD12D
S2140039000CB1BDE8F08121463846BDE8F041FFF72E
S2140039109FB821463846FFF79BF8C8F81050002E8F
S214003920EFD0E9E700400E40C800C64300300E4026
S21400393010B5104B82B0D3F8004158B10E4B1B782F
S21400394013B10E4B98420ED9002002B0BDE81040CD
S214003950FFF7B2BF0191FDF769FAC4F3042404FB34
S21400396000000199EAE7022002B0BDE81040FFF728
S214003970A3BF00BF00400E40941A0020FF2C310168
S214003980034B02781A7001210020FFF7D1BF00BF59
S214003990941A0020064942780B6823F4407343EAE1
S2140039A00223022A0B6004BF024B5B6A704700BF0B
S2140039B000300E4000400E401E4A936FDB07FCD4DA
S2140039C0136C13F003031CD01B4A012183421160C1
S2140039D01CD0032B02D1431E012B18D9154A936F16
S2140039E0D907FCD4136C134923F003030343136471
S2140039F08B6FDB07FCD400300F4B18BF012018601C
S214003A0070470028E7D10C4B186070477047094A8A
S214003A104FF40023D362936FD907FCD4136C054987
S214003A2023F0030343F0010313644B6A1B03FCD526
S214003A30D4E700BF00300E40B40AC6432DE9F04F6D
S214003A40A0F5E16489B00023B4F5966FCDE90233A2
S214003A50CDE90433CDE9063370D8514BB0F5E16FAC
S214003A60D3F868318CBF4FF0010A4FF0000A69D1D5
S214003A70C3F30724DBB2079404934FF4167B4FF48A
S214003A809665DFF820910191D9F84C60C6F301766F
S214003A90044605A902A8334690465246FFF748FD5D
S214003AA0D9F8E070C7F3012752463B4606A903A89B
S214003AB0FFF73EFD049A0799651B8B1A05FB03F377
S214003AC0B3FBFBF3D3182CBF01220022994235D357
S214003AD0002A33D1069903980A1A05FB02F2B2FBB4
S214003AE0FBF210EB020A2CBF01220022514525D31F
S214003AF022BB0299059A501A05FB00F5B5FBFBFBA5
S214003B0011EB0B0B2CBF012100215A4516D3A9B986
S214003B10B8F1000F0ED0D9F85C2022F4FE4222F055
S214003B20020242EA0323B4F5E16F1E4A18BF43F0CF
S214003B300203D365019B7BB9012000E0002009B099
S214003B40BDE8F08F1C0EC3F30743079404934FF4AD
S214003B50966B4FF4E16594E730460021FFF77EFD53
S214003B600028EBD038460121FFF778FD0028E5D085
S214003B700C4A536ED34538BFD34623F4FF73BBF1CC
S214003B80E70F23F0010328BF4FF0E70BB4F5E16F12
S214003B9018BF43F0010343EA4B035366CFE700BF69
S214003BA0B081E00F00300E403A4B1A6FD96CC9074F
S214003BB030B402F007020BD5012A57D9132852D980
S214003BC0143813288CBF4FF47F424FF4EE4207E0C0
S214003BD0D96CCD073BD4012A51D9DB6C6FF0FF02BC
S214003BE02C482D4DC36C2D4C23F47F431343C364E4
S214003BF0C16C2B88C26CC1F303210131283301EB61
S214003C00810503EB5303B3FBF5F3013B072B22F0CF
S214003C10EE6228BF072342F4801242EA0363B4F937
S214003C200020C364002A10DB036D4C08283204EB26
S214003C30410102EB520223F07004B2FBF1F3072BB2
S214003C4028BF072344EA0313036530BC7047DB6CC8
S214003C50DC0711D5012A0FD827288CBF4FF47F42E6
S214003C604FF4EE42BCE74FF44C52B9E7DA6CD1079A
S214003C7005D5DB6CDB07EFD46FF0FF02B0E7092851
S214003C80F1D90A3809288CBF4FF47F424FF4EE4230
S214003C90A6E700BF00300E408A1A00208C1A0020CB
S214003CA0C2884A2AF8B50446B0F90C7005D9B2F5B0
S214003CB0FA7F53D24FF0805000E000203349344E54
S214003CC0CB6C344D23F0405323F00103002FA8BFE4
S214003CD043F001030343CB64D1F8E030288843F473
S214003CE04073C1F8E030CB6E43F08073CB66336828
S214003CF0002B3CD133680B6F23F007030B67FFF7ED
S214003D0053FF254B2549A0882689B4F90C201A8034
S214003D1028800E80FFF748FFA37B002B31D0012BB5
S214003D2018D0012211466088FFF788FE054678B154
S214003D30164A6078D36B43F48063D363FFF73CFE88
S214003D40A37A174AA3F12003B3FA83F35B0913603F
S214003D502846F8BD0D4B134A9A65E2E740F6C313B2
S214003D609A428CBF4FF040504FF00050A6E73368A1
S214003D700B6F23F0070343F004030B67FFF714FFF2
S214003D80BFE7024B084A9A65CBE700BF00300E40FB
S214003D908009C643881A00208C1A00208A1A002040
S214003DA09407C643372110B777402057054A064B7D
S214003DB006491B68136F23F007031843106708882B
S214003DC0FFF7F2BE00300E408009C643881A002076
S214003DD02DE9F043072A01F003019DF81C609DF8C9
S214003DE0205027D8DFF87090DFF87080DFF870E09A
S214003DF0DFF870C094000F27A040A740C9F80070F5
S214003E00C8F800000320A14000FA04F4CEF80040F1
S214003E10CCF800100E490F4C11448900012000FA1E
S214003E2002F20B60C1F88060C4F82424C1F8005385
S214003E30BDE8F083A2F10804A4000F27DFF828905D
S214003E40DFF82880DFF828E0DFF828C0D4E700BFD6
S214003E508020851000A0004000A4004400A4004676
S214003E6008A4004408A4004604A4004404A4004691
S214003E700CA400440CA40046F0B444004AB1271831
S214003E80214D3F0101263D448E40A3B305F1C06598
S214003E902E6025182D0105F18045072905F52045DA
S214003EA019D88F006E684FF00F0C0CFA07FC26EA44
S214003EB00C0602FA07F73E436E6052B90444124AF3
S214003EC024010120224400FA01F1C3B902F1806204
S214003ED01160F0BC704701F18046083EAF68B6003E
S214003EE04FF00F0C0CFA06FC27EA0C0702FA06F64F
S214003EF03E43AE60E1E705F180652E60C9E702F15A
S214003F00C062F0BC116070470CA00040034B034435
S214003F109B0081F001011960704700BFA001F110FD
S214003F2038B5044601211148FEF7A0FDB4F801306B
S214003F3020780F4A0F495BBA9BB243EA0063002021
S214003F4013604FF0004510624FF0FF33D0625063AD
S214003F504FF40070D5669366C1F88001E3785B0184
S214003F60DBB281F80933086038BD00BF00550A008F
S214003F7000200E4000E100E0F8B5CB7A8E7A0D7B8B
S214003F80234F1B050C4643EA064300EB400607EBAF
S214003F90061643EA4553C0B20125497B22F00302C8
S214003FA085402068C6F88000C6F88810C6F88430B9
S214003FB0C6F89820BD66FFF70BFAFB6E227A2B43F5
S214003FC0FB6612B17B6B2B437B63637A1BB1104A93
S214003FD0D36A2B43D3620E4B22791B6822B1D2439D
S214003FE0120262F47F42134062790AB143EA022366
S214003FF0A2790AB123EA0203E27902B11343044A22
S214004000044913600D60D563BDE8F840FFF7E4B9D6
S21400401000200E4028200E4410B5C0B20124844073
S214004020FFF7D6F9054A0649D36E23EA0403D3669A
S2140040300C60BDE81040FFF7CFB900BF00200E406F
S21400404020200E44F8B5C3B201259D400446FFF774
S214004050BFF90B4B04EB44041F6E9E6A03EB04147B
S214004060D4F88C40FFF7B8F9354206D1C4F30A10ED
S21400407008B93D4200D10130F8BD0020F8BD00BFB0
S21400408000200E408368DB06FCD5036CDA0702D4FA
S214004090436C5B06FCD48162704700BF054A064B42
S2140040A05168526841F671321A649A6822F0010229
S2140040B09A60704700300E4000000E40034B9A682E
S2140040C0002122F001029A601964704700000E4039
S2140040D0014B01229A60704700500E40144A154B5F
S2140040E00021F0B408465568134F03F14806012234
S2140040F00FE0B2F5006F16D0B2F5803F13D02A421B
S21400410002D0294208BF10430833B3420ED053E909
S21400411002213C686407F2D4B2F5806F03D0E8D879
S214004120B2F5007FEBD141F48071E8E7F0BC704750
S21400413000500E4030480200E841E00F43794178D5
S2140041400278F0B40479C7798678C5781B0343EA09
S2140041500423002943EA02030CBF002104218479CA
S214004160027A002E43EA074343EA01030CBF00210C
S2140041701021002D43EA01030CBF00212021002C52
S21400418043EA01030CBF00214FF400410B430AB180
S21400419043F40033014AF0BC13607047002004402B
S2140041A00B4A536911699B0003F03C03C1F381116C
S2140041B00B438370136903F03F0343709369D2691E
S2140041C003F0F003C2F3031213430370704700BFFB
S2140041D0D0FF0FE0F8B5054616461C46E9B1202C80
S2140041E021D022D9402C16D0602C13D104222B6863
S2140041F0104F23F060032B6006FB02F62B68720854
S21400420002EB4112B2FBF6F2203A07EAC2021C4366
S2140042102C606A61F8BD0622E9E70748FEF71CFD38
S214004220202C0146DDD10822E1E7002CF2D1102235
S214004230DDE700BFF8FF7F0040410500CB435B0091
S21400424003F00A03C360C160704700BF2C4A70B514
S214004250044600232B4840F6AA660D46944241F2D7
S2140042600501E66023606160A3606361E364A064A7
S21400427023666367A367E3673FD002F580629442D4
S21400428037D002F58062944237D0A365AB7C1BB171
S214004290236843F080432360EB7C1BB12B7D43F007
S2140042A08003A365697B2E8AE8892B7BAA68314345
S2140042B00143616020466968FFF78CFF6B7D1BB188
S2140042C0236843F480332360AB7DEA7D297E28781B
S2140042D01B07120503F0E04302F4E00213432366D3
S2140042E0636F23F030036367636F0B436367E060BD
S2140042F070BD2365A365E365C8E700232365C4E7AF
S21400430000000140F9FF0100344A70B5044600235E
S214004310334840F6AA660D46944241F20501E6602F
S21400432023606160A3606361E364A06423666367DF
S214004330A367E3674AD002F58062944242D002F552
S2140043408062944242D0A3652A8AA87B2368297D8E
S21400435042F00102002843EA02030CBF00224FF499
S214004360806213432360236809B143F00053AA7C9C
S21400437023601AB1EB7C43F08003A3652B7BD5E961
S214004380010643F48053636018B36B7B01387600F4
S214004390B0FBF6F0000260610BB11023E3606B7DAA
S2140043A01BB1236843F480332360AB7DEA7D297814
S2140043B01B07120503F0E04302F4E00213432366F2
S2140043C0E16070BD2365A365E365BDE70023236553
S2140043D0B9E70448FEF740FCD7E700BF00000140FD
S2140043E0F9FF010040410500134A1449002330B488
S2140043F0904240F6AA6541F20504C5600360446039
S21400440083604361C3648164036643678367C367ED
S2140044100FD002F58062904206D002F5806290428C
S21400442007D0836530BC7047036530BC8365C365C1
S214004430704700230365F4E700000140F9FF010020
S21400444003695A06FCD5416303699B06FCD5C0691F
S214004450C0B2704703695B06FCD54163704700BF76
S214004460C20606D51038C0B2032817D80C4B185C05
S2140044707047C1070ED482070ED410F0080F0CBF89
S2140044800323042310F0600F0CBF43F0800043F0BA
S214004490C00070470123F5E70223F3E704207047C6
S2140044A0704802002DE9F04186B015461C460746C6
S2140044B0884600F06BFA40F206239D4200F0C18069
S2140044C043D840F201139D4200F0DB80B5F5817FB2
S2140044D026D2042D79D0072D00F09581032D30D1FA
S2140044E0002403A8CDE90344059401F04FFAB1492E
S2140044F0DFF8F8C2049BCB6043F60A324A824CF6D9
S2140045008E528A82AC4A0123C1E900C2AB4A0B82B2
S2140045108A60162000932246234604F0E9FE10E047
S21400452040F203139D4200F02681B5F5817F40F2EC
S2140045305F8140F201239D4252D040F203239D4208
S2140045405FD0002006B0BDE8F08140F202639D42D5
S21400455000F0658118D840F202339D422BD040F21D
S21400456001639D4200F0838140F207239D42E8D11B
S21400457020780EF05DFC0028E3D08E4923780B717E
S21400458063784B718E4B24E040F204639D4200F04A
S2140045905881C0F0518140F205639D4200F05F8172
S2140045A040F207639D42CCD1824923780B71636841
S2140045B04B71844B0DE0844B1E68002EC1D0234601
S2140045C02A4641463846B047BBE77A4923888B805F
S2140045D07E4B0B600123009300231A4606209CE7BF
S2140045E02368DA689707ACD57249DB7FA2888B719F
S2140045F0774B8A800B600123009300231A4607201E
S2140046008BE72368D87F0EF013FC0546002898D069
S214004610C3681E0695D46749A3888B80C37F8B71B9
S2140046206B4B0B600123009300231A46072004F00F
S2140046305FFE28460EF0E7F9EB6843F08003EB6078
S2140046407FE723685B4953F8110F48609B880B810E
S2140046502368DA7D8A7293F82E20501E4242424129
S214004660CA72DA7F0A7393F84C2093F84D308B7336
S214004670584B0B6001234A73009300231A460F2001
S2140046804BE7A0784B4DFF2804F1030614D1637B5B
S2140046902B713368C5F80530B388A5F80930637AFE
S2140046A0EB72A37A2B734C4B2B60012300930023F1
S2140046B01A4629460D2030E7484B1B6827465B07FD
S2140046C057F8148F34D5FFF7CBFE28713368C5F83A
S2140046D00530B388A5F80930637AEB72A37A2B739A
S2140046E0E37A6B73237BAB73637BEB73A37B2B74D5
S2140046F023786B746378AB744046238AA5F813302E
S21400470000F0D7FDC2B202F1120035496A75030205
S21400471041EA10219BB20B432B600223009363698E
S2140047202946162004F0E4FD384600F0E7FC08E7CA
S21400473023782B71A078FFF793FE68713368C5F86D
S2140047400630B3886B81637A2B73A37A6B7340460B
S21400475000F0AFFDC2B202F10B002249AA730302B9
S21400476041EA10219BB20B432B600223009363693E
S21400477029460F20D6E720780EF05AFB00283FF493
S214004780E0AE0C4923780B716388A1F80530A38846
S214004790A1F80730E388A1F80930237ACB72638941
S2140047A08B81114B0B600123009300231A460E20C9
S2140047B0B3E600BFD847002002000A0001009901B6
S2140047C0A0020804A0020F0908480020A002010564
S2140047D0A0030801A00B0800A00903020C48002053
S2140047E0A0000304A0000300A00A0802A012010013
S2140047F0234923780B71234B0B600123009300237E
S2140048001A46052089E620780EF012FB1C49C37F65
S2140048100B7163784B71A3788B711B4BEAE620789B
S2140048200EF006FB00283FF48CAE154923780B717A
S21400483063784B71154BCCE6114923780B71144BFA
S214004840DAE70F4923780B716368C1F80530114B1E
S2140048500B600123009300231A4609205DE60849F1
S21400486023780B716368C1F805300B4BF0E70449F9
S21400487023780B716388A1F80530084BBAE600BFB1
S214004880D8470020A0010301A0030803A0020F03DD
S214004890A0010F01A0050F00A0050F02A0030F0442
S2140048A0014B1860704700BF08480020034B044ABD
S2140048B01A60044B00221A60704700BF10480020A0
S2140048C0A54400000C48002010B504464FF498702C
S2140048D0A047064B18604FF49870A047044B18602A
S2140048E04FF49870A047034B186010BD9C1A002028
S2140048F0A01A0020981A002010B5064C0123226842
S21400490003FA00F011B11043206010BD22EA000047
S214004910FAE700BF0C48002037B507F011F9174C2E
S21400492002A942F6072321F8023D208002200EF05D
S2140049305BF94FF6FF710246012003F0D5F80546F5
S214004940C0B1B4F90030002B4FF00A02CCBF0533DB
S214004950053B93FBF2F302AA5BB202F8033D012388
S2140049600021184600F063FD002203462946104643
S21400497003F060FAB4F9000003B030BDA41A0020BA
S214004980014BB3F900007047A41A002037B51C4647
S21400499040F207439A4200F0DE80B2F5816F39D2CA
S2140049A040F203439A4200F08A800AD840F201435C
S2140049B09A4264D040F202439A426AD0002003B082
S2140049C030BD40F205439A42864D00F0928040F298
S2140049D0AD8023782B716388A5F80530A068A3887E
S2140049E0A5F8073000F065FCC2B2901D7E496A72D9
S2140049F0030241EA10219BB20B432B600223009373
S214004A0054F8083F29460A2004F072FC204600F0BD
S214004A1075FBD3E740F202539A4200F0B2801BD8EF
S214004A20B2F5816F00F09F8040F201539A42C5D1E3
S214004A306C4D23782B716388A5F805302379EB71CC
S214004A40A068E3882B8100F034FCC2B2D01D0302BC
S214004A50AA729BB265495EE040F204539A4200F0A7
S214004A60B580C0F09F8040F205539A42A6D15D49BA
S214004A7023780B716388A1F805305D4B06E0594931
S214004A8023780B716388A1F805305A4B0B6001231D
S214004A9072E05449227E23780B71951D6368564850
S214004AA0C1F805302B029BB240EA152003430B6089
S214004AB001234A72009304F108030A2016E04949CC
S214004AC02378227E0B716388A1F80530551D237963
S214004AD04A48CB712B0240EA15209BB203430B6079
S214004AE001230A720920009304F1080304F000FC75
S214004AF064E723782B716388A5F805302379EB717A
S214004B00A068E3882B8100F0D4FBC2B2D01D03025C
S214004B103B49AA729BB241EA10210B432B60022349
S214004B200093294654F8083F0B206DE7227D237832
S214004B302B71101D63883349A5F80530030241EA3E
S214004B4010219BB20B432B600123EA712946009388
S214004B500820231DCAE7234923780B716388A1F830
S214004B600530294B92E71F4923780B7103234B71BD
S214004B70254A0A6001238B71009300231A460720FA
S214004B80B4E7184923780B716388A1F805302379B8
S214004B90CB71E3880B811D4B0B6001230093002330
S214004BA01A468AE70F4D23782B716388A5F80530DF
S214004BB02379EB71A068E3882B8100F07AFBC2B200
S214004BC0D01D0302AA729BB21149A4E705492378B7
S214004BD00B716388A1F805302379CB71E3880B81CC
S214004BE00C4BD9E7D8470020A0000905A0000A0012
S214004BF0A0030A04A0030900A0000901A0000902FE
S214004C00A0000904A0000903A0030906A0060A01E3
S214004C10A0000A02A0060A03B2F1A04F13B50CD1F9
S214004C200749084B0B6001240023042000941A4611
S214004C3004F05EFB204602B010BD0020FBE700BF7C
S214004C40D8470020A00001040022024902480EF0C6
S214004C50C4BC00BF194C0000A81A00201FB501F004
S214004C6019FB0246006892880A4CADF80C2002AB8D
S214004C70029093E80300084B23600123009300236F
S214004C80606021811A4621460A2004F031FB04B0F8
S214004C9010BD00BFD84700202006010307B5024616
S214004CA00C4806232C21006815F0F4FB0A4900285E
S214004CB040F2015308BF00238B80084B0B60012392
S214004CC0009300231A46062004F012FB03B05DF89A
S214004CD004FB00BFBC210020D847002020020104AE
S214004CE007B50378CBB94378821C0D483621006897
S214004CF015F0D0FB002840F2015308BF00230949F5
S214004D008B80094B0B600123009300231A46062074
S214004D1004F0EEFA03B05DF804FB4FF4C073EEE760
S214004D20BC210020D84700202002010D10B50478D1
S214004D30102C86B015DC02A920460EF0BFFD00231D
S214004D400A498B800A4B8C71E21C43EA02230B60F3
S214004D5001230093224602AB072004F0C9FA06B0EE
S214004D6010BD00244FF4C073EAE700BFD847002008
S214004D702000010B07B50078003018BF012000F0B6
S214004D80DFFD0749074B0B60012388800093002353
S214004D901A46062004F0ACFA03B05DF804FB00BF28
S214004DA0D84700202002010C07B5B0F90000FFF735
S214004DB0B3FD0749074B0B6001238880009300234F
S214004DC01A46062004F094FA03B05DF804FB00BF10
S214004DD0D84700202002010A07B50749074A0A609B
S214004DE0002301228B80062000921A4604F080FAE7
S214004DF003B05DF804FB00BFD84700202002010086
S214004E0000780DF06FBD000000224FF0A041014871
S214004E100EF0DBBBA81A002037B50C460949E51C86
S214004E20888009488C712B0240EA15209BB2034308
S214004E300B600123009307201346224604F058FA1D
S214004E4003B030BDD8470020A000010607B5821C7D
S214004E50417800780DF0F5FD0649074A0A60002300
S214004E6001228B80062000921A4604F041FA03B015
S214004E705DF804FBD84700202002010E2DE9F74319
S214004E808146FEF7A5FA804608F03EFC99F8003009
S214004E90078846888588C4880BB108F039FC4046E8
S214004EA0FEF79AFA0849094A0A60002301228B8015
S214004EB0CF800E814D818C810E2000921A4604F020
S214004EC017FA03B0BDE8F083D8470020200A010F88
S214004ED037B50C460949E51C888009488C712B02B9
S214004EE040EA15209BB203430B6001230093072082
S214004EF01346224604F0FCF903B030BDD847002024
S214004F002000FF002DE9F04105460E469046FEF7CC
S214004F105FFA012D07460ED128460EF075FC1C4B95
S214004F200C381B6898420DDC3846FEF755FA00240C
S214004F302046BDE8F0812DB901200EF065FC154B2A
S214004F400638EEE701200EF03DFC0446E0B10023F3
S214004F5083804279867142F00802464463F3000279
S214004F60012DC671036005714271836007D1084A3E
S214004F701368013313603846FEF72EFAD8E70DB9EA
S214004F80044AF5E7044AF3E7044B01221A70F2E7F5
S214004F90AC1A0020B41A0020B01A0020BC1A002058
S214004FA0054A00231370054A1360054A1360054A34
S214004FB01360054A13607047BC1A0020B81A002018
S214004FC0B01A0020B41A0020AC1A002008B500223F
S214004FD01146FFF797FF08BD5318452B02DCC9B2F0
S214004FE0FFF790BF0020704738B5044600282DD044
S214004FF0FEF7EEF963796FF3C30363712379012B30
S214005000054613D1124A1368013B13606379DB0728
S21400501021464CBF032001200EF0EAFB0D4B1A7808
S2140050204AB92846BDE83840FEF7D6B90BB90A4A51
S214005030E9E70A4AE7E700221A70094B1C68002CC9
S214005040EFD06368204698472468F8E738BD00BF6D
S214005050AC1A0020BC1A0020B41A0020B01A002097
S214005060B81A0020C279C2F145039942A8BF194672
S214005070C9B20A44C2710846704738B50546C079B9
S214005080C0F14504944228BF14460C3022462844FA
S2140050901FF03BFAEB792344EB71204638BD2DE92F
S2140050A0F0410C46064628B334B3A179E5796D1A6B
S2140050B09D4207D30C3119442144ED1A06EB020831
S2140050C0374614E05B1B2468EEE77B19984538BF2B
S2140050D0A8EB070538462A461FF017FA24682F441F
S2140050E03CB1A379E57903F10C012144ED1AB845EA
S2140050F0EBD8B81BBDE8F0812046FBE738B5044680
S214005100206800B938BD0568FFF76EFF2560F7E731
S214005110F7B5002605460F4601960DB9019C09E035
S214005120002211463846FFF7EDFE044628B901A8CE
S214005130FFF7E4FF204603B0F0BDA879A071EB7935
S214005140E3716B796279C3F3400363F341026271E2
S2140051506B79D2B2C3F3800363F382026271AB79D8
S214005160EA7903F10C010C30D21A294420441FF0CE
S214005170CCF9019B03B9019406B134602D6826462C
S214005180CBE710B5034660B10068196809B10A6834
S2140051900AB9002204E05479A40703D500240C6061
S2140051A01A6010BD1A60F0E770B586798E42054623
S2140051B00C4603D3741A8471012070BDC279921B09
S2140051C0C2F1450399420DDC06F10C010144A01B17
S2140051D008441FF0A5F90023AB71EB791C44A41B0F
S2140051E0EC71E9E70020E8E738B504460D46FFF71E
S2140051F0DBFF48B92079FFF7E9FE20B145235D1BA8
S2140052000460C371857138BD2046FCE7F8B5C479E3
S2140052108379E41A8C4205460F4601DC0020F8BD6F
S2140052200079FFF7D3FE06460028F7D0AB798079E1
S2140052300C33E41BD919A4B20C302246294430445E
S2140052401FF063F9F379E4B22344F371EB791C1B86
S2140052502B68EC71012033602E60E0E7F8B5066835
S21400526007460D463446002305B12CB90BB1002283
S2140052701A603C603046F8BDE379A2799B1AAB42CF
S21400528007DCA379E2799B1A1D44EDB22346246815
S214005290EAE729462046FFF7B9FF0028F1D106467F
S2140052A0E8E703681BB11A68026000221A60184615
S2140052B070470346002003B97047DA7999791B686E
S2140052C0521A1044F7E7F8B5164604460F46FFF79D
S2140052D0F0FFB04212D24FF0FF3013E0A079E5792C
S2140052E02D1AB54228BF35460C302A46394620448A
S2140052F01FF0FCF830B924682F44761B1CB1002E32
S214005300ECD13046F8BD2046FCE72DE9F84F89463B
S21400531017468246FFF7CDFF04464846FFF7C9FF0B
S214005320A74206DC874207DC0024A346A0462646A2
S21400533039E0844202D03BDB012037E0E7B2F3E7F6
S2140053405EB99AF806809AF80760A6EB080608F198
S2140053500C08D044DAF800A0F6B2BBF1000F0AD170
S21400536099F8064099F807502D1B0C344C44D9F890
S21400537000905FFA85FB5E45354628BF5D46BD4218
S21400538028BF3D462A46214640461FF0AFF868B97A
S214005390A8442C44EDB27F1B761BABEB0505FFB291
S2140053A0F6B25FFA85FB002FCAD13846BDE8F88F03
S2140053B04FF0FF30FAE7036813B9016070471346F1
S2140053C01A68002AFBD1196070472DE9F8430E468B
S2140053D01546074638B341B3F2B104462368F3B91D
S2140053E0A146A84634B92246B9793879FFF78AFD2E
S2140053F0044678B1424631462046FFF73EFE4C450D
S214005400A8EB000818BFC9F800400644A146B8F14A
S214005410000F06D1A5EB08052846BDE8F8831C4614
S214005420DCE70024DFE70546F6E70D46F4E737B588
S2140054301546C9B200221C46FFF764FD019040B134
S21400544022462946FFF7C1FF844202D901A8FFF78A
S21400545055FE019803B030BD38B505460C4684B1FC
S214005460286870B1C1798379C91A8AB2944206D382
S21400547003682B60641AE4B2FFF7B6FDEFE71C443E
S214005480847138BDF8B5036806460C4693B9F8BD76
S214005490054638460768002FFAD1C1798379CB1ABA
S2140054A0A34202D9091BC171F1E7E41AFFF79CFD7C
S2140054B03DB12F60002CEAD030680028E7D00025E8
S2140054C0E8E73560F6E7F8B50446002704B9F8BD06
S2140054D0A179E57901F14506761BB6B20EB92468C6
S2140054E0F4E749B16D1A0C312A46214404F10C0048
S2140054F01FF016F8E571A7712368002BEFD05A79D4
S2140055009207ECD49979DD79A079E2796D1AADB27B
S214005510B54200F10C0028BF354610440C312A462F
S214005520194420441EF0F1FFE3792068761BEDB2A3
S2140055302B44E37183791D44C379EDB2AB42B6B216
S214005540857103D103682360FFF74EFD002ED3D18B
S214005550C5E70000054B064A1868064B1B681B0487
S21400556043EA002310681843704700BFB41A0020AF
S214005570AC1A0020B01A002010B50446FDF728FF2C
S214005580034B1A6822601C60BDE81040FDF724BF7C
S214005590B81A002038B50B4D0B492B6809681A1845
S2140055A0914204460CD90246002118461EF0D1FF4F
S2140055B003460330204420F003002860184638BD18
S2140055C00023FBE7C81A0020CC1A002007B50849BC
S2140055D01B684B60074B0B600123009300231A46A1
S2140055E0082003F085FE002003B05DF804FB00BF32
S2140055F0D8470020A00401032DE9F8430746134DC1
S214005600DFF84C9003F046FEA8460DF0B7F9286088
S214005610D8F800000DF0E7F9064603F045FE04460C
S21400562088B90DF0A3FE0028F2D167B199F80030D2
S2140056304BB9FDF7CDFE0446304609F0FFFE204686
S214005640FDF7CAFEE1E72046BDE8F883C01A002051
S214005650D01A002007B508480849006802230DF153
S214005660060214F027FF18B9BDF8060000F0CAF9C4
S21400567003B05DF804FB00BFBC210020320004002C
S2140056802DE9F0430368834E834FDFF8408213F41E
S214005690807F044618BF012387B018BF33700DF013
S2140056A0FDFA257A94F80990E368002D08BF0425D2
S2140056B0B9F1000F08BF4FF0010923B1228A3B6001
S2140056C01344C8F800307548FFF7FEF873491320F6
S2140056D00EF06CF85FFA89F1E8B20DF073F928461F
S2140056E0494606F0C9F994F83A50002D00F0A68015
S2140056F0102D28BF10250EF00DF86A1C81B200236D
S214005700D2B20C200EF014F80DF0D0FE0DF0E0FD35
S214005710D8F800203B68043AD21A512158230120B9
S214005720B2FBF3F20023D2B20EF002F8337833B9AC
S214005730206880F40070C0F3402004F0DDFD0DF01A
S2140057405DFE337813B1564B626A1A6001200DF085
S214005750F5F8544E544B3068196814F093FC94F8DE
S2140057603030626B5149306814F094FE02AF042367
S21400577004F12C024E49306814F08CFEFFF76AFFE5
S2140057803846256800F034F988B9022304AA494946
S214005790306814F08FFE002852D1BDF81000BDF816
S2140057A00830834203D06B064AD500F02BF994F8F4
S2140057B00480E06908F0040810B101210DF045F9F5
S2140057C006233A463C49306814F074FE002845D15A
S2140057D03D5C002D3BD101300628F9D12E460DF058
S2140057E0CDF8364B18600DF021FE206A09F0D4FB88
S2140057F0002D14BF3A46002204F12803012120465A
S21400580004F00EFD09F0A4FD00F02EF900F06CF98E
S2140058101EB104A9012000F015FD002128480DF056
S21400582077FD284B1870B8F1000F24D10220FBF743
S214005830CFFE0DF0A9F807B0BDE8F08304255AE7BF
S21400584002233A461B49306814F024FEAFE70023D3
S214005850FA5CFF2A11D10133062BF9D10026354612
S214005860BDE79DF80760012E11D197E8030004906C
S214005870ADF81410B3E70320D9E701230DF10702B2
S2140058801149306814F016FE05460028E9D00026B7
S2140058900125A4E7D01A0020C81A0020955500005C
S2140058A0D41A0020BC210020C021002036000400AD
S2140058B035000400340004002C000400C01A002048
S2140058C0CD550000144800203C000400CC1A0020EF
